{
  "address": "0x5FbDB2315678afecb367f032d93F642f64180aa3",
  "abi": [
    {
      "inputs": [],
      "name": "name",
      "outputs": [
        {
          "internalType": "string",
          "name": "",
          "type": "string"
        }
      ],
      "stateMutability": "view",
      "type": "function"
    }
  ],
  "transactionHash": "0x0da3fc50a6feab11f3e0c52a821f6416711b1006b36ad85ee712b69088d5cec3",
  "args": [],
  "numDeployments": 1,
  "solcInputHash": "21e9fd9bcd155315491eb60b112a837f",
  "bytecode": "0x60806040526040518060400160405280600a81526020017f4e6578757320506c7573000000000000000000000000000000000000000000008152506000908051906020019061004f929190610062565b5034801561005c57600080fd5b50610166565b82805461006e90610134565b90600052602060002090601f01602090048101928261009057600085556100d7565b82601f106100a957805160ff19168380011785556100d7565b828001600101855582156100d7579182015b828111156100d65782518255916020019190600101906100bb565b5b5090506100e491906100e8565b5090565b5b808211156101015760008160009055506001016100e9565b5090565b7f4e487b7100000000000000000000000000000000000000000000000000000000600052602260045260246000fd5b6000600282049050600182168061014c57607f821691505b602082108114156101605761015f610105565b5b50919050565b61022e806101756000396000f3fe608060405234801561001057600080fd5b506004361061002b5760003560e01c806306fdde0314610030575b600080fd5b61003861004e565b6040516100459190610175565b60405180910390f35b6000805461005b906101c6565b80601f0160208091040260200160405190810160405280929190818152602001828054610087906101c6565b80156100d45780601f106100a9576101008083540402835291602001916100d4565b820191906000526020600020905b8154815290600101906020018083116100b757829003601f168201915b505050505081565b600081519050919050565b600082825260208201905092915050565b60005b838110156101165780820151818401526020810190506100fb565b83811115610125576000848401525b50505050565b6000601f19601f8301169050919050565b6000610147826100dc565b61015181856100e7565b93506101618185602086016100f8565b61016a8161012b565b840191505092915050565b6000602082019050818103600083015261018f818461013c565b905092915050565b7f4e487b7100000000000000000000000000000000000000000000000000000000600052602260045260246000fd5b600060028204905060018216806101de57607f821691505b602082108114156101f2576101f1610197565b5b5091905056fea2646970667358221220f12da4b7388d2492d30fe7457ee960b5e05b6b4763ce1f6c3531669c2353567764736f6c63430008090033",
  "devdoc": {
    "kind": "dev",
    "methods": {},
    "version": 1
  },
  "userdoc": {
    "kind": "user",
    "methods": {},
    "version": 1
  },
  "storageLayout": {
    "storage": [
      {
        "astId": 5,
        "contract": "contracts/Token.sol:Token",
        "label": "name",
        "offset": 0,
        "slot": "0",
        "type": "t_string_storage"
      }
    ],
    "types": {
      "t_string_storage": {
        "encoding": "bytes",
        "label": "string",
        "numberOfBytes": "32"
      }
    }
  }
}